:100000000C9434000C9449000C9449000C94490061
:100010000C9449000C9449000C9449000C9449003C
:100020000C9449000C9449000C9449000C9449002C
:100030000C9449000C9449000C9449000C9449001C
:100040000C9449000C9449000C9449000C9449000C
:100050000C9449000C9449000C9449000C944900FC
:100060000C9449000C94490011241FBECFEFD8E036
:10007000DEBFCDBF11E0A0E0B1E0EEECF1E002C0E8
:1000800005900D92A631B107D9F70E944B000C9450
:10009000E5000C940000CF93DF93CDB7DEB72A972D
:1000A0000FB6F894DEBF0FBECDBFE0910A01F0910C
:1000B0000B011082E0910401F091050180818E6FA7
:1000C0008083E0910001F09101018081877F80832E
:1000D000E0910601F09107018081816080838AE0D0
:1000E000ECE0F1E0DE01119601900D928A95E1F7C6
:1000F000E0910201F09103018EE7808320E030E07F
:100100000AE010E0E0910801F0910901908190FD72
:10011000F9CF4FE986E891E0415080409040E1F707
:1001200000C00000E0910801F0910901808180FD8C
:10013000E9CFC9010196B8010E94BD009C01A091C0
:100140000201B0910301E1E0F0E0EC0FFD1FE80FC8
:10015000F91F80818C9309C04FE986E891E04150F6
:1001600080409040E1F700C00000E0910801F0916C
:100170000901908190FFF0CFC5CF97FB072E16F4B1
:10018000009407D077FD09D00E94D10007FC05D06C
:100190003EF4909581959F4F0895709561957F4F9E
:1001A0000895AA1BBB1B51E107C0AA1FBB1FA617BE
:1001B000B70710F0A61BB70B881F991F5A95A9F710
:0E01C00080959095BC01CD010895F894FFCF75
:1001CE00C1002B002A002800260027007E0CB69EB8
:0601DE00CCDAFA0EFECEA1
:00000001FF
