:100000000C9434000C94C5000C9451000C945100D5
:100010000C94EA000C9451000C9451000C94510083
:100020000C9451000C9451000C9451000C9451000C
:100030000C9451000C9451000C9451000C945100FC
:100040000C9451000C9451000C9451000C945100EC
:100050000C9451000C9451000C9451000C945100DC
:100060000C9451000C94510011241FBECFEFD8E026
:10007000DEBFCDBF11E0A0E0B1E0EEE3F2E002C0F0
:1000800005900D92AE30B107D9F721E0AEE0B1E0B6
:1000900001C01D92A431B207E1F70E94A1000C94A7
:1000A0001D010C940000EF93FF93009741F0ECE7E3
:1000B000FCE0319709F0FDCF019709F0F8CFFF91EF
:1000C000EF9108958091120190911301009791F49E
:1000D0008091100190911101019687709078992379
:1000E00024F40197886F9F6F01969093110180937C
:1000F000100113C0019789F48091100190911101B2
:10010000019728F0909311018093100106C087E0B9
:1001100090E09093110180931001E0910A01F09119
:100120000B011082A0910A01B0910B01E091100126
:10013000F0911101E050FF4F9C918081892B8C93AD
:100140000895E0910C01F0910D018081876080831A
:10015000E9E6F0E080818160808380818260808335
:10016000E89AE8E6F0E0808182608083ECE6F0E0E7
:100170008081816080837894809108019091090149
:100180000E9453000E946200F7CF1F920F920FB699
:100190000F9211248F939F938091080190910901F0
:1001A00099230CF4019695958795843691052CF04A
:1001B000909309018093080106C088EE93E0909324
:1001C0000901809308019F918F910F900FBE0F90AE
:1001D0001F9018951F920F920FB60F9211248F93B4
:1001E0009F9380910E0190910F01892B69F481E01A
:1001F00090E090930F0180930E01809112019091F5
:100200001301009769F405C010920F0110920E01BE
:100210000DC081E090E0909313018093120106C01D
:10022000019721F410921301109212019F918F9166
:0E0230000F900FBE0F901F901895F894FFCFFF
:0E023E000004020106030507E8032500240062
:00000001FF
