:100000000C9434000C9451000C9451000C94510049
:100010000C9451000C9451000C9451000C9451001C
:100020000C9451000C9451000C9451000C9451000C
:100030000C9451000C9451000C9451000C945100FC
:100040000C9451000C9451000C9453000C945100EA
:100050000C94A9000C9451000C9451000C94510084
:100060000C9451000C94510011241FBECFEFD8E026
:10007000DEBFCDBF12E0A0E0B1E0E8E2F4E002C0F4
:1000800005900D92AC31B107D9F722E0ACE1B2E0B6
:1000900001C01D92A333B207E1F70E9427010C941F
:1000A00012020C9400001F920F920FB60F921124AF
:1000B0002F933F935F936F937F938F939F93AF9310
:1000C000BF93EF93FF938091C6008093320280919B
:1000D00020029091210220911E0230911F02019670
:1000E0006BE070E00E94EA018217930711F1E09142
:1000F0002002F091210280913202E95DFD4F808360
:100100008091200290912102019690932102809388
:10011000200280912002909121020B9751F480914E
:100120001E0290911F02892B21F010922102109241
:100130002002FF91EF91BF91AF919F918F917F919D
:100140006F915F913F912F910F900FBE0F901F9075
:1001500018951F920F920FB60F9211248F939F93B1
:1001600081E090E090931D0280931C029F918F91FB
:100170000F900FBE0F901F901895AC0110922602A1
:1001800010922502E0912502F0912602E80FF91F56
:1001900080818093C600A6ECB0E01CC020911C02B8
:1001A00030911D0221303105A9F4809125029091F2
:1001B000260201969093260280932502E091250263
:1001C000F0912602E40FF51F80818C9310921D029E
:1001D00010921C02E0912502F0912602E40FF51F17
:1001E00090819111DBCF08951092C50087E680932E
:1001F000C4001092C00088ED8093C1008EE080930F
:10020000C200089520911E0230911F0280912002A9
:100210009091210228173907C9F080911E02909110
:100220001F02019690931F0280931E0280911E026E
:1002300090911F020B9751F480912002909121021E
:100240000B9721F010921F0210921E020895E09168
:100250001A02F0911B0287E080830E94F4007894D8
:10026000C0E1D2E00E9402012FEF83EC99E021501F
:1002700080409040E1F700C00000209120023091C2
:10028000210280911E0290911F022817390759F40C
:1002900080E091E00E94BD00E0911802F091190207
:1002A00088818083DFCFE0911E02F0911F02E95D1B
:1002B000FD4F8081823759F4E0911802F0911902C4
:1002C000898180838BEE91E00E94BD00CBCFE091CD
:1002D0001E02F0911F02E95DFD4F8081873659F4BF
:1002E000E0911802F09119028A81808389EC91E0F3
:1002F0000E94BD00B7CFE0911E02F0911F02E95DA0
:10030000FD4F8081823659F4E0911802F091190274
:100310008B81808388EA91E00E94BD00A3CFE091A9
:100320001E02F0911F02E95DFD4F8081893759F46B
:10033000E0911802F09119028C81808384E891E0A9
:100340000E94BD008FCFE0911E02F0911F02E95D77
:10035000FD4F8081833659F4E0911802F091190223
:100360008D81808382E691E00E94BD007BCFE09189
:100370001E02F0911F02E95DFD4F80818D3659F418
:10038000E0911802F09119028E8180838EE391E052
:100390000E94BD0067CFE0911E02F0911F02E95D4F
:1003A000FD4F8081873759F4E0911802F0911902CE
:1003B0008F8180838BE191E00E94BD0053CFE0915B
:1003C0001802F09119028881808388E091E00E94F0
:1003D000BD0048CF97FB072E16F4009407D077FD99
:1003E00009D00E94FE0107FC05D03EF4909581954E
:1003F0009F4F0895709561957F4F0895AA1BBB1B71
:1004000051E107C0AA1FBB1FA617B70710F0A61B14
:10041000B70B881F991F5A95A9F780959095BC0135
:08042000CD010895F894FFCF0F
:1004280056617A696F210A00436F6D616E646F20AF
:10043800696E636F727265746F0A00436F6D616EE7
:10044800646F3A204163656E646572204C454420B0
:100458002D20636F72206272616E63610A00436FC0
:100468006D616E646F3A204163656E646572204CFD
:100478004544202D20636F72206D6167656E74613D
:100488000A00436F6D616E646F3A204163656E6464
:100498006572204C4544202D20636F72206369618A
:1004A8006E6F0A00436F6D616E646F3A2041636539
:1004B8006E646572204C4544202D20636F72206164
:1004C8006D6172656C610A00436F6D616E646F3AAD
:1004D800204163656E646572204C4544202D20637D
:1004E8006F7220617A756C0A00436F6D616E646F7C
:1004F8003A204163656E646572204C4544202D2086
:10050800636F722076657264650A00436F6D616E71
:10051800646F3A204163656E646572204C454420DF
:100528002D20636F72207665726D656C68610A00B4
:0C05380000040201060305072500240052
:00000001FF
